:100000000C942A000C94150B0C94480B0C947B0B4D
:100010000C9447000C9447000C9447000C94470044
:100020000C9447000C9447000C9447000C94470034
:100030000C9447000C9447000C9447000C94470024
:100040000C94640F0C9447000C9447000C944700E8
:100050000C94470011241FBECFE5D8E0DEBFCDBF12
:1000600010E0A0E6B0E0ECEFFFE202C005900D92D8
:10007000A239B107D9F710E0A2E9B0E001C01D92A2
:10008000AC39B107E1F70E94C3160C94FC170C942D
:100090000000EF92FF920F931F937B018C0120E0F1
:1000A00030E040E05FE40E94490388238CF0C801FF
:1000B000B70120E030E040E05FE40E94C1010E940F
:1000C000A9039B01AC01205030404040504806C07D
:1000D000C801B7010E94A9039B01AC01B901CA0183
:1000E0001F910F91FF90EF900895A0E0B0E0EBE733
:1000F000F0E00C94C517DC012B01FA019C919230C1
:1001000008F439C1EB018881823008F433C194309E
:1001100069F4843009F02FC111969C91119789815F
:10012000981709F428C1AAE6B0E025C1843009F483
:1001300021C18230A9F4923009F01DC19A01AD01AC
:1001400088E0EA010990AE01E90109929E0181501F
:10015000C1F7E201898111969C918923818308C1AD
:10016000923009F407C112962D903C901397EB0141
:100170008A819B811496AD90BD90CD90DC901797AD
:10018000EC80FD800E811F819101281B390BB90184
:1001900037FF04C066277727621B730B6032710537
:1001A0000CF061C0121613066CF537014801062EDB
:1001B00004C096948794779467940A94D2F721E0C8
:1001C00030E040E050E004C0220F331F441F551FB1
:1001D0006A95D2F721503040404050402E213F21B7
:1001E00040235123211531054105510521F021E01E
:1001F00030E040E050E079018A01E628F72808293C
:1002000019293CC0232BD1F1260E371E350146019A
:10021000062E04C096948794779467940A94D2F734
:1002200021E030E040E050E004C0220F331F441FC3
:10023000551F6A95D2F721503040404050402A2146
:100240003B214C215D21211531054105510521F04E
:1002500021E030E040E050E059016A01A628B728CB
:10026000C828D9280BC0821593052CF01C01AA249C
:10027000BB24650103C0EE24FF24870111969C91E5
:10028000D20111968C91981709F445C0992339F041
:10029000A80197012A193B094C095D0906C0A6016E
:1002A00095012E193F09400B510B57FD08C01182D3
:1002B0003382228224833583468357831DC081E0A5
:1002C00081833382228288279927DC01821B930B4A
:1002D000A40BB50B84839583A683B7830DC0220F2F
:1002E000331F441F551F24833583468357838281E0
:1002F000938101979383828324813581468157813D
:10030000DA01C9010197A109B1098F5F9F4FAF4F72
:10031000BF4328F30BC0918333822282EA0CFB1C7B
:100320000C1D1D1DE482F5820683178383E0808304
:10033000248135814681578157FF1AC0C901AA27F8
:1003400097FDA095BA2F81709070A070B0705695EF
:10035000479537952795822B932BA42BB52B848318
:100360009583A683B7838281938101969383828349
:10037000DF0101C0D201CD01CDB7DEB7E2E10C94BF
:10038000E117A0E2B0E0E7ECF1E00C94D11769834B
:100390007A838B839C832D833E834F835887E9E048
:1003A000EE2EF12CEC0EFD1ECE010196B7010E943F
:1003B000D2048E010F5E1F4FCE010596B8010E9438
:1003C000D2048A8991E089278A8BC701B801AE01DE
:1003D000475E5F4F0E9475000E94FD03A096E6E015
:1003E0000C94ED17A0E2B0E0E8EFF1E00C94D11727
:1003F00069837A838B839C832D833E834F835887C5
:10040000F9E0EF2EF12CEC0EFD1ECE010196B701A6
:100410000E94D2048E010F5E1F4FCE010596B801D7
:100420000E94D204C701B801AE01475E5F4F0E942F
:1004300075000E94FD03A096E6E00C94ED17A0E283
:10044000B0E0E5E2F2E00C94C51769837A838B8310
:100450009C832D833E834F835887CE010196BE0136
:10046000675F7F4F0E94D204CE010596BE016F5E8A
:100470007F4F0E94D2049985923088F0898982301A
:10048000C8F0943019F4823051F404C0843029F457
:10049000923081F48AE690E0C6C0923049F420E0C0
:1004A0009A858A89981321E02A87CE010996BBC0D4
:1004B000823049F420E09A858A89981321E02A8BBA
:1004C000CE014196B0C02D843E844F8458886D88FB
:1004D0007E888F88988CEE24FF248701AA24BB2471
:1004E000650140E050E060E070E0E0E0F0E0C10174
:1004F00081709070892BE9F0E60CF71C081D191D1E
:100500009A01AB012A0D3B1D4C1D5D1D80E090E062
:10051000A0E0B0E0E614F7040805190520F481E036
:1005200090E0A0E0B0E0BA01A901480F591F6A1F8E
:100530007B1FAA0CBB1CCC1CDD1C97FE08C081E0F5
:1005400090E0A0E0B0E0A82AB92ACA2ADB2A3196B6
:10055000E032F10549F0660C771C881C991C569412
:10056000479437942794C3CFFA85EA892B893C892D
:100570008B859C85280F391F2E5F3F4F17C0CA01FE
:1005800081709070892B61F016950795F794E79428
:1005900080E090E0A0E0B0E8E82AF92A0A2B1B2BC3
:1005A00076956795579547952F5F3F4F77FDE7CF36
:1005B0000CC0440F551F661F771F17FD4160EE0CDE
:1005C000FF1C001F111F21503040403090E05907A0
:1005D00090E0690790E4790760F32B8F3C8FDB0193
:1005E000CA018F779070A070B07080349105A1051A
:1005F000B10561F447FD0AC0E114F10401051105DC
:1006000029F0405C5F4F6F4F7F4F40781A8EFE1786
:1006100011F081E08A8F4D8F5E8F6F8F78A383E01A
:10062000898FCE0149960E94FD03A096E2E10C94C9
:10063000E117A8E1B0E0EFE1F3E00C94D117698392
:100640007A838B839C832D833E834F83588789E0F5
:10065000E82EF12CEC0EFD1ECE010196B7010E9492
:10066000D2048E010F5E1F4FCE010596B8010E9485
:10067000D2048985823040F08989823028F0C70110
:10068000B8010E944A0501C08FEF6896E6E00C941D
:10069000ED17A8E1B0E0EFE4F3E00C94D117698323
:1006A0007A838B839C832D833E834F83588789E095
:1006B000E82EF12CEC0EFD1ECE010196B7010E9432
:1006C000D2048E010F5E1F4FCE010596B8010E9425
:1006D000D2048985823040F08989823028F0C701B0
:1006E000B8010E944A0501C08FEF6896E6E00C94BD
:1006F000ED17A8E1B0E0EFE7F3E00C94D1176983C0
:100700007A838B839C832D833E834F83588789E034
:10071000E82EF12CEC0EFD1ECE010196B7010E94D1
:10072000D2048E010F5E1F4FCE010596B8010E94C4
:10073000D2048985823040F08989823028F0C7014F
:10074000B8010E944A0501C081E06896E6E00C9479
:10075000ED17ACE0B0E0EFEAF3E00C94D517698355
:100760007A838B839C83CE010196BE016B5F7F4FA2
:100770000E94D2048D81823061F1823050F1843048
:1007800021F48E81882351F12EC02F81388537FDC9
:1007900020C06E812F3131051CF06623F9F023C093
:1007A0008EE190E0821B930B29853A854B855C8511
:1007B00004C056954795379527958A95D2F76623B5
:1007C000B1F050954095309521953F4F4F4F5F4F79
:1007D0000EC020E030E040E050E009C02FEF3FEFD6
:1007E0004FEF5FE704C020E030E040E050E8B9019F
:1007F000CA012C96E2E00C94F117DF92EF92FF927F
:100800000F931F93FC01E480F58006811781D1804E
:100810008081823048F480E090E0A0E1B0E0E82AF6
:10082000F92A0A2B1B2BA5C0843009F49FC0823003
:1008300021F4EE24FF24870105C0E114F104010531
:10084000110519F4E0E0F0E096C0628173819FEF3A
:10085000623879070CF05BC022E83FEF261B370BAC
:100860002A3131052CF020E030E040E050E02AC091
:10087000B801A701022E04C0769567955795479554
:100880000A94D2F781E090E0A0E0B0E004C0880FC5
:10089000991FAA1FBB1F2A95D2F70197A109B10979
:1008A0008E219F21A023B1230097A105B10521F03E
:1008B00081E090E0A0E0B0E09A01AB01282B392B59
:1008C0004A2B5B2BDA01C9018F779070A070B07052
:1008D00080349105A105B10539F427FF09C0205CDA
:1008E0003F4F4F4F5F4F04C0215C3F4F4F4F5F4F13
:1008F000E0E0F0E02030A0E03A07A0E04A07A0E402
:100900005A0710F0E1E0F0E079018A0127C0603871
:10091000710564F5FB01E158FF4FD801C7018F77DE
:100920009070A070B07080349105A105B10539F4C4
:10093000E7FE0DC080E490E0A0E0B0E004C08FE3EB
:1009400090E0A0E0B0E0E80EF91E0A1F1B1F17FFA1
:1009500005C016950795F794E794319687E01695AC
:100960000795F794E7948A95D1F705C0EE24FF2404
:100970008701EFEFF0E06E2F679566276795902F60
:100980009F77D794DD24D7948E2F8695492F462BB9
:10099000582F5D29B701CA011F910F91FF90EF9069
:1009A000DF900895FC01DB01408151812281622F9B
:1009B0006F7770E0221F2227221F9381892F880FD3
:1009C000822B282F30E0991F9927991F11969C930D
:1009D000119721153105A9F54115510561057105DD
:1009E00011F482E037C082E89FEF13969C938E93B8
:1009F00012979A01AB0167E0220F331F441F551F66
:100A00006A95D1F783E08C930DC0220F331F441FEA
:100A1000551F12968D919C911397019713969C9355
:100A20008E931297203080E0380780E0480780E4FA
:100A3000580758F314962D933D934D935C93179755
:100A400008952F3F310579F4411551056105710570
:100A500019F484E08C93089564FF03C081E08C93C3
:100A600012C01C9210C02F57304013963C932E9307
:100A7000129783E08C9387E0440F551F661F771F02
:100A80008A95D1F7706414964D935D936D937C9322
:100A9000179708951F93DC01FB019C91923008F495
:100AA00047C08081823008F443C0943051F41196DD
:100AB0001C91843099F58181682F70E0611B710968
:100AC0003FC0843021F0923031F48230B9F181811D
:100AD000882389F12DC011961C9111978230F1F075
:100AE00081811817D9F412962D913C911397828128
:100AF00093818217930794F028173907BCF0149656
:100B00008D919D910D90BC91A02D248135814681C0
:100B10005781281739074A075B0718F4112341F05A
:100B20000AC082179307A407B50740F4112319F0F0
:100B300061E070E005C06FEF7FEF02C060E070E041
:100B4000CB011F910895DF93CF930F92CDB7DEB7FE
:100B500083E060E040E00E94300C83E061E041E02F
:100B60000E94300CE9E2F0E083E380838981877E94
:100B7000898389818E7F8983898186608983EAE27E
:100B8000F0E080818B7F8083898180648983E0E4C9
:100B9000F0E089818083EAE2F0E0808180618083F7
:100BA000EAE2F0E08081886080830F90CF91DF914E
:100BB0000895DF93CF9300D000D000D0CDB7DEB73B
:100BC0008E831A821B821C821D82198216C08A8122
:100BD0009B81AC81BD810196A11DB11D8A839B8340
:100BE000AC83BD83EBE2F0E080818072882329F042
:100BF000ECE2F0E08E8180830CC08A819B81AC8125
:100C0000BD81813D27E0920720E0A20720E0B207E6
:100C1000F0F28A819B81AC81BD81803D27E0920703
:100C200020E0A20720E0B20711F481E089838981E6
:100C300026960FB6F894DEBF0FBECDBFCF91DF91E1
:100C40000895DF93CF9300D00F92CDB7DEB79B838B
:100C50008A8319820EC08981282F30E08A819B8186
:100C6000FC01E20FF31F80810E94D90589818F5F0B
:100C700089838981282F30E08A819B81FC01E20FE2
:100C8000F31F8081882339F70F900F900F90CF9139
:100C9000DF910895DF93CF9300D000D0CDB7DEB7BA
:100CA0009C838B838FEF8A8319820CC08981282FC4
:100CB00030E08B819C81FC01E20FF31F108289815F
:100CC0008F5F898389818A3089F78A818F5F8A83E0
:100CD0008A81282F332727FD30958B819C81820FB5
:100CE000931F0E9487068A81282F332727FD30957E
:100CF0008B819C81FC01E20FF31F8081833229F7F5
:100D00000F900F900F900F90CF91DF910895DF9388
:100D1000CF9300D00F92CDB7DEB79B838A83198221
:100D2000EBE2F0E080818078882339F0ECE2F0E0BB
:100D30008081EA81FB81808302C081E0898389818F
:100D40000F900F900F90CF91DF910895DF93CF9385
:100D5000CDB7DEB7E5E4F0E0808180648083E5E430
:100D6000F0E0808188608083E5E4F0E080818F7C22
:100D700080628083CF91DF910895DF93CF93CDB7C9
:100D8000DEB7E5E4F0E08081887F8083CF91DF915A
:100D90000895DF93CF93CDB7DEB7E5E4F0E080812F
:100DA000887F84608083CF91DF910895DF93CF9314
:100DB0000F92CDB7DEB78983E4E4F0E089818083C8
:100DC0000F90CF91DF910895DF93CF93CDB7DEB72A
:100DD000E4E4F0E08081CF91DF9108950F931F93B9
:100DE000DF93CF930F92CDB7DEB7898303E410E092
:100DF0008981882F90E0A0E0B0E02FEF30E040E064
:100E000050E0BC01CD010E948417DC01CB0124E637
:100E100030E040E050E0BC01CD010E94A317DA01B0
:100E2000C901F80180830F90CF91DF911F910F913D
:100E30000895DF93CF93CDB7DEB783E065E041E05F
:100E40000E94300CAFE4B0E0EFE4F0E080818E7FF0
:100E50008C93AFE4B0E0EFE4F0E0808182608C93AB
:100E6000AEE4B0E0EEE4F0E0808188608C93AEE424
:100E7000B0E0EEE4F0E0808180618C93AFE4B0E01C
:100E8000EFE4F0E0808180688C93AFE4B0E0EFE4C1
:100E9000F0E080818F7B8C93CF91DF910895DF9379
:100EA000CF93CDB7DEB7E6E4F0E081E792E091833F
:100EB0008083CF91DF910895DF93CF9300D0CDB79A
:100EC000DEB79A838983EAE4F0E089819A8191838D
:100ED00080830F900F90CF91DF910895DF93CF9390
:100EE000CDB7DEB7AEE4B0E0EEE4F0E080818E7F17
:100EF0008C93AEE4B0E0EEE4F0E080818D7F8C93E3
:100F0000AEE4B0E0EEE4F0E0808184608C93CF91B9
:100F1000DF910895DF93CF93CDB7DEB7AEE4B0E0B5
:100F2000EEE4F0E080818E7F8C93AEE4B0E0EEE4FE
:100F3000F0E080818D7F8C93AEE4B0E0EEE4F0E0F1
:100F400080818B7F8C93CF91DF910895DF93CF9336
:100F5000CDB7DEB781E063E041E00E94300CE3E50D
:100F6000F0E0808180648083E3E5F0E08081886048
:100F70008083E3E5F0E080818F7C80628083CF9185
:100F8000DF910895DF93CF93CDB7DEB7E3E5F0E0CF
:100F90008081887F8083CF91DF910895DF93CF9305
:100FA000CDB7DEB7E3E5F0E08081887F84608083A1
:100FB000CF91DF910895DF93CF930F92CDB7DEB736
:100FC0008983E2E5F0E0898180830F90CF91DF9102
:100FD0000895DF93CF93CDB7DEB7E2E5F0E08081EF
:100FE000CF91DF9108950F931F93DF93CF930F92CB
:100FF000CDB7DEB789830CE510E08981882F90E0BA
:10100000A0E0B0E02FEF30E040E050E0BC01CD01C7
:101010000E948417DC01CB0124E630E040E050E080
:10102000BC01CD010E94A317DA01C901F801808338
:101030000F90CF91DF911F910F910895DF93CF9380
:10104000CDB7DEB7E1E4F0E0808188608083CF91A6
:10105000DF910895DF93CF93CDB7DEB7E1E4F0E001
:1010600088E18083E1E4F0E08081877F8083CF9115
:10107000DF910895DF93CF930F92CDB7DEB78983C9
:10108000E1E4F0E089818770982F97708081887FF4
:10109000892B80830F90CF91DF910895DF93CF93B9
:1010A000CDB7DEB7ADE2B0E0EDE2F0E080818F7E5B
:1010B0008C9381E064E040E00E94300C81E065E0C8
:1010C00040E00E94300C81E066E041E00E94300C7C
:1010D00081E067E040E00E94300CADE2B0E0EDE27C
:1010E000F0E0808180628C93ADE2B0E0EDE2F0E070
:1010F000808180648C93CF91DF910895DF93CF93AB
:1011000000D0CDB7DEB78A831982EFE2F0E08A81A2
:101110008083EEE2F0E08081881F8827881F81307D
:1011200021F4EFE2F0E08081898389810F900F90B4
:10113000CF91DF910895DF93CF9300D0CDB7DEB785
:101140009A838983EEE2F0E080818823DCF7EFE286
:10115000F0E08081E981FA8180830F900F90CF9138
:10116000DF910895DF93CF930F92CDB7DEB78983D8
:10117000EFE2F0E0898180830F90CF91DF910895B5
:10118000DF93CF93CDB7DEB7E0E2F0E082E080837B
:10119000A1E2B0E0E1E2F0E080818E7F8C93A1E2F9
:1011A000B0E0E1E2F0E080818D7F8C93A6E5B0E0D5
:1011B000E6E5F0E0808184608C93CF91DF91089523
:1011C000DF93CF930F92CDB7DEB781E08983A6E599
:1011D000B0E0E6E5F0E0808180628C93A6E5B0E0C7
:1011E000E6E5F0E0808180688C93E6E5F0E08081C0
:1011F0008823DCF7E1E2F0E08081882F90E0887FAF
:1012000090708830910511F082E0898389810F9078
:10121000CF91DF910895DF93CF93CDB7DEB7A6E5E9
:10122000B0E0E6E5F0E0808180618C93A6E5B0E077
:10123000E6E5F0E0808180688C93CF91DF9108959E
:10124000DF93CF930F92CDB7DEB781E08983A6E518
:10125000B0E0E6E5F0E0808180628C93A6E5B0E046
:10126000E6E5F0E0808180688C93E6E5F0E080813F
:101270008823DCF7E1E2F0E08081882F90E0887F2E
:1012800090708031910511F083E0898389810F90FE
:10129000CF91DF910895DF93CF9300D0CDB7DEB724
:1012A0008A8381E08983E3E2F0E08A81880F80838A
:1012B000A3E2B0E0E3E2F0E080818E7F8C93A6E5CC
:1012C000B0E0E6E5F0E080818F7D8C93A6E5B0E0AC
:1012D000E6E5F0E0808180688C93E6E5F0E08081CF
:1012E0008823DCF7E1E2F0E08081882F90E0887FBE
:1012F00090708831910511F084E0898389810F9085
:101300000F90CF91DF910895DF93CF9300D0CDB7A9
:10131000DEB78A8381E08983E3E2F0E08A81882F67
:1013200090E0880F991F81608083A6E5B0E0E6E534
:10133000F0E080818F7D8C93A6E5B0E0E6E5F0E0FB
:10134000808180688C93E6E5F0E080818823DCF77B
:10135000E1E2F0E08081882F90E0887F9070803417
:10136000910511F085E0898389810F900F90CF91CD
:10137000DF910895DF93CF9300D0CDB7DEB78A8396
:1013800081E08983E3E2F0E08A818083A6E5B0E032
:10139000E6E5F0E0808180688C93E6E5F0E080810E
:1013A0008823DCF7E1E2F0E08081882F90E0887FFD
:1013B00090708832910511F086E0898389810F90C1
:1013C0000F90CF91DF910895DF93CF9300D00F92CC
:1013D000CDB7DEB79B838A8381E08983A6E5B0E041
:1013E000E6E5F0E0808180688C93E6E5F0E08081BE
:1013F0008823DCF7E3E2F0E08081EA81FB818083EF
:1014000089810F900F900F90CF91DF910895DF9316
:10141000CF93CDB7DEB7AFE5B0E0EFE5F0E0808188
:1014200080688C93CF91DF910895DF93CF93CDB7F0
:10143000DEB7AFE5B0E0EFE5F0E080818F778C9329
:10144000CF91DF910895DF93CF9300D000D0CDB737
:10145000DEB789836A838981282F30E03C832B8320
:101460008B819C818130910509F440C02B813C81A6
:101470002230310509F46FC08B819C81009709F0FF
:1014800090C083E062E040E00E94300C83E062E0C4
:1014900041E00E94340D8A81882379F4A5E5B0E00B
:1014A000E5E5F0E080818E7F8C93A5E5B0E0E5E591
:1014B000F0E0808182608C9311C08A81813071F468
:1014C000A5E5B0E0E5E5F0E0808181608C93A5E5DD
:1014D000B0E0E5E5F0E0808182608C93ABE5B0E0C0
:1014E000EBE5F0E0808180648C935BC083E063E097
:1014F00040E00E94300C83E063E041E00E94340D44
:101500008A81882379F4A5E5B0E0E5E5F0E0808103
:101510008B7F8C93A5E5B0E0E5E5F0E08081886005
:101520008C9311C08A81813071F4A5E5B0E0E5E5C6
:10153000F0E0808184608C93A5E5B0E0E5E5F0E023
:10154000808188608C93ABE5B0E0EBE5F0E08081D2
:1015500080688C9326C081E062E040E00E94300CFD
:1015600081E062E041E00E94340D8A81882341F4E9
:10157000A4E5B0E0E4E5F0E080818F7B8C930AC0C5
:101580008A81813039F4A4E5B0E0E4E5F0E08081BF
:1015900080648C93ABE5B0E0EBE5F0E080818062A5
:1015A0008C930F900F900F900F90CF91DF91089533
:1015B000DF93CF9300D000D00F92CDB7DEB79A83E0
:1015C00089836B8389819A81009739F18B81282FD8
:1015D00030E03D832C838C819D818130910581F0A9
:1015E0002C813D812230310591F08C819D810097C5
:1015F000A1F489819A8190939300809392000DC009
:1016000089819A81909395008093940006C0898186
:101610009A8190939700809396000F900F900F906F
:101620000F900F90CF91DF9108951F920F920FB6F8
:101630000F9211242F933F934F935F936F937F9358
:101640008F939F93AF93BF93EF93FF93DF93CF93CA
:10165000CDB7DEB78091920090919300009729F06A
:10166000E0919200F09193000995CF91DF91FF9165
:10167000EF91BF91AF919F918F917F916F915F910A
:101680004F913F912F910F900FBE0F901F90189583
:101690001F920F920FB60F9211242F933F934F93E7
:1016A0005F936F937F938F939F93AF93BF93EF93CA
:1016B000FF93DF93CF93CDB7DEB7809194009091E5
:1016C0009500009729F0E0919400F091950009951C
:1016D000CF91DF91FF91EF91BF91AF919F918F914A
:1016E0007F916F915F914F913F912F910F900FBE1E
:1016F0000F901F9018951F920F920FB60F92112402
:101700002F933F934F935F936F937F938F939F9309
:10171000AF93BF93EF93FF93DF93CF93CDB7DEB734
:101720008091960090919700009729F0E0919600A3
:10173000F09197000995CF91DF91FF91EF91BF91C3
:10174000AF919F918F917F916F915F914F913F9159
:101750002F910F900FBE0F901F901895DF93CF938E
:1017600000D000D0CDB7DEB789836A838981282F66
:1017700030E03C832B838B819C8181309105D1F0BB
:101780002B813C81223031052CF48B819C81009788
:1017900061F01EC02B813C812230310581F08B81AC
:1017A0009C818330910581F013C0EAE3F0E08A81E7
:1017B00080830EC0E7E3F0E08A81808309C0E4E320
:1017C000F0E08A81808304C0E1E3F0E08A818083D5
:1017D0000F900F900F900F90CF91DF910895DF93AE
:1017E000CF9300D000D0CDB7DEB789836A838981DB
:1017F000282F30E03C832B838B819C8181309105A5
:10180000D1F02B813C81223031052CF48B819C81DD
:10181000009761F01EC02B813C812230310581F0A0
:101820008B819C818330910581F013C0EBE3F0E064
:101830008A8180830EC0E8E3F0E08A81808309C05A
:10184000E5E3F0E08A81808304C0E2E3F0E08A818E
:1018500080830F900F900F900F90CF91DF9108959C
:10186000DF93CF93CDB7DEB727970FB6F894DEBFDF
:101870000FBECDBF89836A834B838A81883008F08D
:10188000EAC08B81813009F06FC08981282F30E058
:101890003F832E838E819F818130910549F12E8176
:1018A0003F81223031052CF48E819F81009761F0B9
:1018B000D2C02E813F812230310571F18E819F810E
:1018C00083309105E9F1C7C0AAE3B0E0EAE3F0E0B4
:1018D0008081482F8A81282F30E081E090E0022E1D
:1018E00002C0880F991F0A94E2F7842B8C93B3C02F
:1018F000A7E3B0E0E7E3F0E08081482F8A81282F5A
:1019000030E081E090E0022E02C0880F991F0A9417
:10191000E2F7842B8C939FC0A4E3B0E0E4E3F0E013
:101920008081482F8A81282F30E081E090E0022ECC
:1019300002C0880F991F0A94E2F7842B8C938BC006
:10194000A1E3B0E0E1E3F0E08081482F8A81282F15
:1019500030E081E090E0022E02C0880F991F0A94C7
:10196000E2F7842B8C9377C08B81882309F073C0B6
:101970008981282F30E03D832C838C819D818130AB
:10198000910559F12C813D81223031052CF48C8157
:101990009D81009769F05FC02C813D812230310527
:1019A00089F18C819D818330910509F440C053C039
:1019B000AAE3B0E0EAE3F0E08081482F8A81282F93
:1019C00030E081E090E0022E02C0880F991F0A9457
:1019D000E2F7809584238C933EC0A7E3B0E0E7E371
:1019E000F0E08081482F8A81282F30E081E090E06C
:1019F000022E02C0880F991F0A94E2F78095842373
:101A00008C9329C0A4E3B0E0E4E3F0E08081482FA8
:101A10008A81282F30E081E090E0022E02C0880FFA
:101A2000991F0A94E2F7809584238C9314C0A1E354
:101A3000B0E0E1E3F0E08081482F8A81282F30E098
:101A400081E090E0022E02C0880F991F0A94E2F70D
:101A5000809584238C9327960FB6F894DEBF0FBE33
:101A6000CDBFCF91DF910895DF93CF93CDB7DEB790
:101A700027970FB6F894DEBF0FBECDBF89836A8368
:101A80004B838A81883008F0EAC08B81813009F06D
:101A90006FC08981282F30E03F832E838E819F8104
:101AA0008130910549F12E813F81223031052CF49E
:101AB0008E819F81009761F0D2C02E813F812230BC
:101AC000310571F18E819F8183309105E9F1C7C0A5
:101AD000ABE3B0E0EBE3F0E08081482F8A81282F70
:101AE00030E081E090E0022E02C0880F991F0A9436
:101AF000E2F7842B8C93B3C0A8E3B0E0E8E3F0E016
:101B00008081482F8A81282F30E081E090E0022EEA
:101B100002C0880F991F0A94E2F7842B8C939FC010
:101B2000A5E3B0E0E5E3F0E08081482F8A81282F2B
:101B300030E081E090E0022E02C0880F991F0A94E5
:101B4000E2F7842B8C938BC0A2E3B0E0E2E3F0E0F9
:101B50008081482F8A81282F30E081E090E0022E9A
:101B600002C0880F991F0A94E2F7842B8C9377C0E8
:101B70008B81882309F073C08981282F30E03D8351
:101B80002C838C819D818130910559F12C813D817F
:101B9000223031052CF48C819D81009769F05FC063
:101BA0002C813D812230310589F18C819D818330EA
:101BB000910509F440C053C0ABE3B0E0EBE3F0E0C3
:101BC0008081482F8A81282F30E081E090E0022E2A
:101BD00002C0880F991F0A94E2F7809584238C93A2
:101BE0003EC0A8E3B0E0E8E3F0E08081482F8A81BE
:101BF000282F30E081E090E0022E02C0880F991F6C
:101C00000A94E2F7809584238C9329C0A5E3B0E081
:101C1000E5E3F0E08081482F8A81282F30E081E0E1
:101C200090E0022E02C0880F991F0A94E2F7809577
:101C300084238C9314C0A2E3B0E0E2E3F0E080815F
:101C4000482F8A81282F30E081E090E0022E02C0E8
:101C5000880F991F0A94E2F7809584238C93279626
:101C60000FB6F894DEBF0FBECDBFCF91DF910895C0
:101C7000DF93CF9300D000D00F92CDB7DEB78A8329
:101C80006B838B81883008F067C08A81282F30E011
:101C90003D832C834C815D814130510541F18C8124
:101CA0009D818230910534F42C813D8121153105CF
:101CB00061F052C04C815D814230510551F18C81FF
:101CC0009D8183309105B9F147C0E9E3F0E080815F
:101CD000282F30E08B81882F90E0A90102C0559514
:101CE00047958A95E2F7CA018170898335C0E6E39A
:101CF000F0E08081282F30E08B81882F90E0A901CF
:101D000002C0559547958A95E2F7CA01817089838B
:101D100023C0E3E3F0E08081282F30E08B81882F1F
:101D200090E0A90102C0559547958A95E2F7CA014E
:101D30008170898311C0E0E3F0E08081282F30E0DA
:101D40008B81882F90E0A90102C0559547958A950F
:101D5000E2F7CA018170898389810F900F900F90FB
:101D60000F900F90CF91DF910895DF93CF9300D024
:101D700000D0CDB7DEB789836A838A81883008F0C6
:101D80006EC08981282F30E03C832B838B819C811E
:101D90008130910549F12B813C81223031052CF4B1
:101DA0008B819C81009761F05AC02B813C8122304D
:101DB000310571F18B819C8183309105E9F14FC030
:101DC000ABE3B0E0EBE3F0E08081482F8A81282F7D
:101DD00030E081E090E0022E02C0880F991F0A9443
:101DE000E2F784278C933BC0A8E3B0E0E8E3F0E09F
:101DF0008081482F8A81282F30E081E090E0022EF8
:101E000002C0880F991F0A94E2F784278C9327C099
:101E1000A5E3B0E0E5E3F0E08081482F8A81282F38
:101E200030E081E090E0022E02C0880F991F0A94F2
:101E3000E2F784278C9313C0A2E3B0E0E2E3F0E082
:101E40008081482F8A81282F30E081E090E0022EA7
:101E500002C0880F991F0A94E2F784278C930F9091
:101E60000F900F900F90CF91DF910895DF93CF9354
:101E700000D000D00F92CDB7DEB79B838A837D83DD
:101E80006C8382E089838A819B81009739F08A8103
:101E90009B8190939B0080939A0001C019828C8152
:101EA0009D81009739F08C819D819093990080935A
:101EB000980001C0198289810F900F900F900F90A8
:101EC0000F90CF91DF9108951F920F920FB60F924E
:101ED00011242F933F934F935F936F937F938F932F
:101EE0009F93AF93BF93EF93FF93DF93CF93CDB7C0
:101EF000DEB780919A0090919B00009759F0E09195
:101F00009A00F0919B00A4E2B0E08D919C91119712
:101F1000918380838091980090919900009729F097
:101F2000E0919800F09199000995CF91DF91FF9190
:101F3000EF91BF91AF919F918F917F916F915F9141
:101F40004F913F912F910F900FBE0F901F901895BA
:101F5000DF93CF93CDB7DEB7E7E2F0E080818F7DEE
:101F60008083E7E2F0E080818F7380648083E6E223
:101F7000F0E08081887F82608083E6E2F0E080810B
:101F800080688083E6E2F0E0808188608083CF9182
:101F9000DF910895DF93CF9300D0CDB7DEB78A836A
:101FA00082E089838A81883058F4E7E2F0E08A8110
:101FB0008F71982F9F718081807E892B808302C0D2
:101FC00083E0898389810F900F90CF91DF910895ED
:101FD000DF93CF93CDB7DEB727970FB6F894DEBF68
:101FE0000FBECDBF9F838E831A821B821C821D82EF
:101FF00082E089838E819F810097D1F1E6E2F0E053
:102000008081806480830BC08A819B81AC81BD818B
:102010000196A11DB11D8A839B83AC83BD83E6E23B
:10202000F0E080818071882361F48A819B81AC819A
:10203000BD81813A26E8920721E0A20720E0B2079D
:1020400018F3E6E2F0E080818071882371F0E6E227
:10205000F0E0808180618083E4E2F0E08081918122
:10206000EE81FF819183808304C081E0898301C078
:102070001982898127960FB6F894DEBF0FBECDBFB7
:10208000CF91DF910895DF93CF93CDB7DEB7E6E22E
:10209000F0E0808180648083CF91DF910895DF93A9
:1020A000CF9300D000D0CDB7DEB79C838B8384E084
:1020B0008A8382E089838B819C810097C1F013C061
:1020C0008A8181508A838A810E94CA0F8A81882FDF
:1020D00090E09C01220F331F8B819C81820F931F04
:1020E0000E94E80F89838A81882351F701C01982F1
:1020F00089810F900F900F900F90CF91DF910895ED
:10210000EF92FF920F931F93DF93CF93CDB7DEB77C
:102110002C970FB6F894DEBF0FBECDBF9E838D8384
:1021200078876F835A8749873C872B871A82198261
:10213000E4E2F0E0808191819A83898329813A8168
:102140008D819E81A901481B590BCA017C0100E0C9
:1021500010E02B853C8589859A85A901481B590B80
:10216000CA019C0140E050E0C801B7010E948417F9
:102170007B018C012F8138858D819E81A901481BAF
:10218000590BCA019C0140E050E0C801B7010E9410
:10219000A317DA01C9019C0189859A85820F931FD3
:1021A0009C838B838B819C812C960FB6F894DEBF29
:1021B0000FBECDBFCF91DF911F910F91FF90EF9098
:1021C0000895DF93CF93CDB7DEB72E970FB6F8946F
:1021D000DEBF0FBECDBF80E090E0A0EFB1E48B8703
:1021E0009C87AD87BE876B857C858D859E8520E02D
:1021F00030E04AEF54E40E941F02DC01CB018F83E0
:102200009887A987BA876F81788589859A8520E024
:1022100030E040E85FE30E94790388232CF481E0FA
:1022200090E09E838D833FC06F81788589859A85F4
:1022300020E03FEF4FE757E40E94190318164CF5D2
:102240006B857C858D859E8520E030E040E251E401
:102250000E941F02DC01CB01BC01CD010E9449009C
:10226000DC01CB019E838D830FC088EC90E09C83C2
:102270008B838B819C810197F1F79C838B838D816C
:102280009E8101979E838D838D819E81009769F742
:1022900014C06F81788589859A850E944900DC0188
:1022A000CB019E838D838D819E819A8389838981D1
:1022B0009A810197F1F79A83898382E066E041E091
:1022C0000E94300C82E067E041E00E94300C82E026
:1022D00062E041E00E94300C82E063E041E00E9455
:1022E000300C82E064E041E00E94300C82E065E066
:1022F00041E00E94300C82E00E94021388E20E94BA
:1023000002138CE00E94021381E00E94021386E017
:102310000E9402132E960FB6F894DEBF0FBECDBFFB
:10232000CF91DF910895DF93CF93CDB7DEB76D974F
:102330000FB6F894DEBF0FBECDBF8D8F8D8D982F59
:10234000991F9927991F82E065E0492F0E94340D5B
:102350008D8D8295869586958370982F917082E0F9
:1023600064E0492F0E94340D8D8D8295869587708B
:10237000982F917082E063E0492F0E94340D8D8D7B
:1023800082958F70982F917082E062E0492F0E94B1
:10239000340D82E067E041E00E94340D80E090E07F
:1023A000A0E0B0E4898F9A8FAB8FBC8F698D7A8D56
:1023B0008B8D9C8D20E030E04AEF54E40E941F0298
:1023C000DC01CB018D8B9E8BAF8BB88F6D897E89A5
:1023D0008F89988D20E030E040E85FE30E94790328
:1023E00088232CF481E090E09C8B8B8B3FC06D891F
:1023F0007E898F89988D20E03FEF4FE757E40E9458
:10240000190318164CF5698D7A8D8B8D9C8D20E003
:1024100030E040E251E40E941F02DC01CB01BC012C
:10242000CD010E944900DC01CB019C8B8B8B0FC03E
:1024300088EC90E09A8B898B89899A890197F1F7CA
:102440009A8B898B8B899C8901979C8B8B8B8B8931
:102450009C89009769F714C06D897E898F89988D52
:102460000E944900DC01CB019C8B8B8B8B899C8962
:10247000988B8F878F8598890197F1F7988B8F8735
:1024800082E067E040E00E94340D8D8D8695869550
:102490008695982F917082E065E0492F0E94340D57
:1024A0008D8D86958695982F917082E064E0492FF6
:1024B0000E94340D8D8D8695982F917082E063E097
:1024C000492F0E94340D8D8D982F917082E062E02B
:1024D000492F0E94340D82E067E041E00E94340DF4
:1024E00080E090E0A0E0B0E48B879C87AD87BE875A
:1024F0006B857C858D859E8520E030E04AEF54E435
:102500000E941F02DC01CB018F839887A987BA87BD
:102510006F81788589859A8520E030E040E85FE327
:102520000E94790388232CF481E090E09E838D83C0
:102530003FC06F81788589859A8520E03FEF4FE71E
:1025400057E40E94190318164CF56B857C858D8520
:102550009E8520E030E040E251E40E941F02DC0151
:10256000CB01BC01CD010E944900DC01CB019E835F
:102570008D830FC088EC90E09C838B838B819C8142
:102580000197F1F79C838B838D819E8101979E83B8
:102590008D838D819E81009769F714C06F81788546
:1025A00089859A850E944900DC01CB019E838D8339
:1025B0008D819E819A83898389819A810197F1F720
:1025C0009A83898382E067E040E00E94340D6D9633
:1025D0000FB6F894DEBF0FBECDBFCF91DF91089547
:1025E000DF93CF930F92CDB7DEB7898382E066E0A9
:1025F00041E00E94340D89810E9493110F90CF9188
:10260000DF910895DF93CF930F92CDB7DEB7898323
:1026100082E066E040E00E94340D89810E949311BF
:102620000F90CF91DF910895DF93CF9300D000D02A
:10263000CDB7DEB79C838B831A8219820FC02B81A2
:102640003C8189819A81F901E80FF91F80810E94FC
:10265000F01289819A8101969A8389832B813C812A
:1026600089819A81F901E80FF91F8081882339F760
:102670000F900F900F900F90CF91DF910895DF93FF
:10268000CF93CDB7DEB727970FB6F894DEBF0FBE56
:10269000CDBF8E836F831A8280E48B8384E18C8329
:1026A00084E58D838E81282F30E0CE010296FC01D7
:1026B000E20FF31F90818F81890F80588983898170
:1026C0000E94021327960FB6F894DEBF0FBECDBF4F
:1026D000CF91DF910895DF93CF93CDB7DEB781E03F
:1026E0000E940213CF91DF9108950F931F93DF9300
:1026F000CF93CDB7DEB763970FB6F894DEBF0FBEAA
:10270000CDBF688B798B8A8B9B8B88899989AA89A5
:10271000BB898A839B83AC83BD8319828981082FFF
:1027200010E08A819B81AC81BD812AE030E040E0ED
:1027300050E0BC01CD010E94A317DC01CB01282F82
:10274000205DCE010696FC01E00FF11F20838A81F7
:102750009B81AC81BD812AE030E040E050E0BC01CB
:10276000CD010E94A317DA01C9018A839B83AC8340
:10277000BD8389818F5F89838A819B81AC81BD8183
:102780000097A105B10551F611C08981882F90E00D
:102790009C0121503040CE010696FC01E20FF31F50
:1027A00080810E94F01289818150898389818823E8
:1027B00061F763960FB6F894DEBF0FBECDBFCF9121
:1027C000DF911F910F910895DF93CF9300D000D038
:1027D0000F92CDB7DEB79C838B836D8319828D8179
:1027E000882F90E00896880F991F880F991F880FEF
:1027F000991F8A838A810E94021319820EC08981DF
:10280000282F30E08B819C81FC01E20FF31F808137
:102810000E94F01289818F5F89838981883078F3E3
:102820000F900F900F900F900F90CF91DF91089520
:10283000DF93CF930F92CDB7DEB7898389810E9452
:10284000F0120F90CF91DF910895DF93CF930F9205
:10285000CDB7DEB71982198229C08981882F90E00F
:10286000FC01E258FF4F20818981882F90E0FC0114
:10287000E658FF4F9081822F692F41E00E94300C73
:102880008981882F90E0FC01E258FF4F20818981E7
:10289000882F90E0FC01E658FF4F9081822F692F2E
:1028A00041E00E94340D89818F5F89838981843062
:1028B000A0F2198229C08981882F90E0FC01EA5892
:1028C000FF4F20818981882F90E0FC01EE58FF4F57
:1028D0009081822F692F40E00E94300C8981882FDF
:1028E00090E0FC01EA58FF4F20818981882F90E019
:1028F000FC01EE58FF4F9081822F692F41E00E942A
:10290000340D89818F5F898389818430A0F20F9093
:10291000CF91DF910895DF93CF93CDB7DEB769975D
:102920000FB6F894DEBF0FBECDBF8FEF8A83CE0106
:1029300005969E8B8D8BE2E8F0E0F88FEF8BF0E14F
:10294000F98FEF89F88D00808F89988D0196988F87
:102950008F8BED89FE8900828D899E8901969E8BE1
:102960008D8B998D9150998FE98DEE2351F71C82B3
:1029700077C08C81882F90E0FC01E258FF4F2081C6
:102980008C81882F90E0FC01E658FF4F9081822FC8
:10299000692F40E00E94340D1B8245C08B81882F37
:1029A00090E0FC01EA58FF4F20818B81882F90E056
:1029B000FC01EE58FF4F9081822F692F0E94380E44
:1029C00089838981882361F58C81282F30E08B8170
:1029D000482F50E0220F331F220F331FCE010196E4
:1029E000820F931F840F951FFC01349680818A8388
:1029F00013C08B81882F90E0FC01EA58FF4F2081A3
:102A00008B81882F90E0FC01EE58FF4F9081822F40
:102A1000692F0E94380E89838981882351F307C06A
:102A20008B818F5F8B838B81843008F4B7CF8C814F
:102A3000882F90E0FC01E258FF4F20818C81882F85
:102A400090E0FC01E658FF4F9081822F692F41E012
:102A50000E94340D8A818F3F39F48C818F5F8C8383
:102A60008C81843008F485CF8A8169960FB6F894FA
:102A7000DEBF0FBECDBFCF91DF910895DF93CF931F
:102A8000CDB7DEB70E94C008CF91DF910895DF93E4
:102A9000CF93CDB7DEB762970FB6F894DEBF0FBE07
:102AA000CDBF988B8F87698B4A8B0E94E0088F85FA
:102AB0009889892F99278065282F30E08A89882F67
:102AC00090E0880F991F880F991F822B932B0E94EB
:102AD0004B098F85882F90E00E94BA098989882F39
:102AE00090E00E94BA090E940B0980E090E0A0E209
:102AF000B1E48B879C87AD87BE876B857C858D8590
:102B00009E8520E030E04AEF54E40E941F02DC0181
:102B1000CB018F839887A987BA876F81788589854C
:102B20009A8520E030E040E85FE30E947903882343
:102B30002CF481E090E09E838D833FC06F81788587
:102B400089859A8520E03FEF4FE757E40E941903FB
:102B500018164CF56B857C858D859E8520E030E0D0
:102B600040E251E40E941F02DC01CB01BC01CD0117
:102B70000E944900DC01CB019E838D830FC088EC4D
:102B800090E09C838B838B819C810197F1F79C83E0
:102B90008B838D819E8101979E838D838D819E8104
:102BA000009769F714C06F81788589859A850E949E
:102BB0004900DC01CB019E838D838D819E819A83A8
:102BC000898389819A810197F1F79A838983629633
:102BD0000FB6F894DEBF0FBECDBFCF91DF91089541
:102BE000DF93CF9300D000D00F92CDB7DEB79C8398
:102BF0008B836D8319821A820E94E00889838B81FE
:102C00009C81892F99278065282F30E08D81882F1E
:102C100090E0880F991F880F991F822B932B0E9499
:102C20004B0989838B81882F90E00E94BA098983A0
:102C30000E94200989838B819C81892F9927806537
:102C4000282F30E08D81882F90E0880F991F880F02
:102C5000991F822B932B0E9484098983CE010296AF
:102C60000E94E40989830E940B098A810F900F90CA
:102C70000F900F900F90CF91DF910895DF93CF9336
:102C800000D000D000D0CDB7DEB79C838B837E838D
:102C90006D838FEF8A838B818983898181508983BA
:102CA0008A818F5F8A8389818F5F89838981482F99
:102CB00050E08A81282F332727FD30958D819E8112
:102CC000FC01E20FF31F2081CA01622F40E00E9445
:102CD00047158A81282F332727FD30958D819E81C6
:102CE000FC01E20FF31F80818823D1F626960FB6F0
:102CF000F894DEBF0FBECDBFCF91DF9108950F9343
:102D00001F93DF93CF9300D000D000D0CDB7DEB7B4
:102D10009C838B837E836D838FEF8A838B818983F2
:102D20008981815089838A818F5F8A8389818F5FBE
:102D300089838A81282F332727FD30958D819E81B5
:102D40008C01020F131F8981882F90E060E00E94A0
:102D5000F015F80180838A81282F332727FD3095CD
:102D60008D819E81FC01E20FF31F80818823D9F6BB
:102D700026960FB6F894DEBF0FBECDBFCF91DF9180
:102D80001F910F910895DF93CF93CDB7DEB76E9764
:102D90000FB6F894DEBF0FBECDBF0E94C008CE01B3
:102DA00040969B8F8A8FE0E6F0E0FD8FEC8FFAE093
:102DB000FE8FEC8DFD8D00808C8D9D8D01969D8FFD
:102DC0008C8FEA8DFB8D00828A8D9B8D01969B8F67
:102DD0008A8F9E8D91509E8FEE8DEE2351F70E942B
:102DE000E00881E00E9484091F860EC08F85282F8D
:102DF00030E0CE014096FC01E20FF31F80810E947B
:102E0000BA098F858F5F8F878F85282F30E0CE019D
:102E10004096FC01E20FF31F8081882339F70E945E
:102E20000B0980E090E0AAE7B4E48B879C87AD872C
:102E3000BE876B857C858D859E8520E030E04AEFDE
:102E400054E40E941F02DC01CB018F839887A9877D
:102E5000BA876F81788589859A8520E030E040E8DF
:102E60005FE30E94790388232CF481E090E09E8345
:102E70008D833FC06F81788589859A8520E03FEFFB
:102E80004FE757E40E94190318164CF56B857C85B3
:102E90008D859E8520E030E040E251E40E941F02D3
:102EA000DC01CB01BC01CD010E944900DC01CB015A
:102EB0009E838D830FC088EC90E09C838B838B81F5
:102EC0009C810197F1F79C838B838D819E81019773
:102ED0009E838D838D819E81009769F780CF6F815E
:102EE000788589859A850E944900DC01CB019E8303
:102EF0008D838D819E819A83898389819A810197AF
:102F0000F1F79A8389836BCF629FD001739FF001A1
:102F1000829FE00DF11D649FE00DF11D929FF00D69
:102F2000839FF00D749FF00D659FF00D9927729FA0
:102F3000B00DE11DF91F639FB00DE11DF91FBD012B
:102F4000CF0111240895A1E21A2EAA1BBB1BFD017B
:102F50000DC0AA1FBB1FEE1FFF1FA217B307E40778
:102F6000F50720F0A21BB30BE40BF50B661F771FD0
:102F7000881F991F1A9469F76095709580959095B0
:102F80009B01AC01BD01CF0108952F923F924F925A
:102F90005F926F927F928F929F92AF92BF92CF92E9
:102FA000DF92EF92FF920F931F93CF93DF93CDB7F2
:102FB000DEB7CA1BDB0B0FB6F894DEBF0FBECDBF6A
:102FC00009942A88398848885F846E847D848C843B
:102FD0009B84AA84B984C884DF80EE80FD800C8144
:102FE0001B81AA81B981CE0FD11D0FB6F894DEBF27
:0C2FF0000FBECDBFED010895F894FFCF97
:102FFC00414D525F4C41424942000000000000002C
:10300C000000070605030303030305040302020281
:10301C0002023738392F3435362A3132332D4330CA
:02302C003D2B3A
:00000001FF
